:020000040000FA
:100000006803002085010000890100008B010000C9
:1000100000000000000000000000000000000000E0
:100020000000000000000000000000008D01000042
:1000300000000000000000008F010000B509000072
:1000400093010000930100009301000000000000F4
:10005000930100000000000000000000000000000C
:1000600000000000930100000000000000000000FC
:10007000000000009301000000000000CD09000016
:100080009301000000000000930100000000000048
:1000900093010000000000000000000000000000CC
:1000A0009301000093010000000000000000000028
:1000B00000000000000000000000000093010000AC
:1000C00000F002F800F04FF812A030C808382418E9
:1000D0002D18AC4201D100F046F80FCCA246AB4639
:1000E0000CA730CF2D1B083F3F197C427F1E544484
:1000F0002D090426F441641EAC4201D300F033F80C
:100100000126334200D0FB1A3343984754465D46DC
:10011000DFE70000340C0000440C00000000000089
:100120007047000000000000002300240025002686
:10013000103A01D378C1FBD8520700D330C100D5A3
:100140000B60704710B5642902D100F071F810BD42
:10015000732902D100F0EEFA10BD002010BD1FB5CA
:100160001FBD10B510BD00F0FDFA1146FFF7F7FFF7
:1001700000F070FC00F015FB03B4FFF7F2FF03BCC6
:1001800000F01CFB06480047FEE7FEE7FEE7FEE73F
:10019000FEE7FEE703480449024A044B70470000AB
:1001A000C1000000680200206803002068020020EF
:1001B0000FB41CB5084B06AA7B446946009005980D
:1001C00000F08DFA04460020694600F09BFA2046B4
:1001D0001CBC08BC04B018474905000070B50C46AB
:1001E0000546012A05D02878800600D5EA69002353
:1001F00002E0012305E05B1C934202D2E05C002890
:10020000F9D1A869E618C01AA861286AC01828623E
:100210002846C046C04604E06A682078A968641C85
:100220009047B442F8D32846C046C04670BD00008F
:10023000F7B5002575291068009914A611D0C0469D
:10024000C046002802DA404211A608E00099096879
:100250008A0701D50FA602E0490704D50EA601259D
:1002600001E0C046C046009F0024243704E000F0AF
:1002700065FA30313955641C0028F8D12B463246D6
:100280002146009800F0CDF9FEBD000000000000FE
:100290002D0000002B00000020000000F3B50446F4
:1002A000002081B020622046E1688847002872D093
:1002B000252802D06268A168ABE0594F00267F4430
:1002C0002046E16888472028054608DB312D06D204
:1002D000781920380078002801D00643F0E7B007ED
:1002E00001D5042086430020E0610746A0612A2D45
:1002F0000AD0284600F012FD002827D0B8000019C7
:10030000303D0090856119E00298BA00121902C8C8
:10031000916102902046E1688847012F054617D178
:10032000E06900281FDA202086431CE000980A219B
:100330008069484300994019303888612046E16857
:100340008847054600F0EAFC0028EFD1012F0AD0CB
:100350002E2D08D12046E168884705462020064317
:100360007F1C022FC3DBA069002803DA4042A06192
:1003700001200643F00701D0102086436C2D0BD0DE
:10038000682D09D04C2D3CD06A2D38D0742D38D032
:100390007A2D36D016E040E0E1682F4620468847A7
:1003A000B842054609D16C2F29D001208002E168AE
:1003B000064320468847054604E06C2F1DD0FF20E9
:1003C00001300643002D28D028464138192803D88B
:1003D0000120C00206432035204626602946029AA5
:1003E0001646FFF7AFFE002810D001280BD0F61DEF
:1003F000F008C0000830029055E74020E1E7802077
:10040000D5E70020D3E7361D02964CE76268284600
:10041000A1689047206A401C44E7206AFEBD0000A6
:10042000680A0000002203098B4273D3030A8B423F
:1004300058D3030B8B423CD3030C8B4221D312E0E5
:1004400003460B437FD4002243088B4274D3030935
:100450008B425FD3030A8B4244D3030B8B4228D3D6
:10046000030C8B420DD30902FF2212BA030C8B42FC
:1004700002D31212090265D0030B8B4219D300E09C
:10048000090AC30B8B4201D3CB03C01A5241830B21
:100490008B4201D38B03C01A5241430B8B4201D3D1
:1004A0004B03C01A5241030B8B4201D30B03C01AFA
:1004B0005241C30A8B4201D3CB02C01A5241830A74
:1004C0008B4201D38B02C01A5241430A8B4201D3A3
:1004D0004B02C01A5241030A8B4201D30B02C01ACD
:1004E0005241CDD2C3098B4201D3CB01C01A524134
:1004F00083098B4201D38B01C01A524143098B42BD
:1005000001D34B01C01A524103098B4201D30B01A5
:10051000C01A5241C3088B4201D3CB00C01A5241CA
:1005200083088B4201D38B00C01A524143088B428F
:1005300001D34B00C01A5241411A00D20146524128
:10054000104670475DE0CA0F00D04942031000D347
:10055000404253409C46002203098B422DD3030A9C
:100560008B4212D38901FC2212BA030A8B420CD3AC
:10057000890192118B4208D3890192118B4204D3D5
:1005800089013AD0921100E08909C3098B4201D355
:10059000CB01C01A524183098B4201D38B01C01A8F
:1005A000524143098B4201D34B01C01A5241030906
:1005B0008B4201D30B01C01A5241C3088B4201D3B5
:1005C000CB00C01A524183088B4201D38B00C01A62
:1005D0005241D9D243088B4201D34B00C01A524139
:1005E000411A00D201465241104663465B1001D3C6
:1005F0004042002B00D54942704763465B1000D350
:10060000404201B50449002802DC491C084000E0D2
:100610000846C046C04602BDFFFFFF7F70477047D7
:100620007047FFB504460D4681B024300090216824
:10063000880604D51022E0699143216000E0012082
:10064000A84201DD471B00E000270498A1697A1940
:100650001018081AA0612078C00602D42046C046AF
:10066000C046002608E003986268A168805D904754
:10067000206A401C761C206204988642F3DB2078B6
:10068000C0060AD52046C046C04606E06268A1689A
:1006900030209047206A401C206238467F1E002888
:1006A000F4DC07E000986268A168405D9047206A2A
:1006B000401C206228466D1E0028F3DC2046C04600
:1006C000C0462078000602D5022005B0F0BD01200A
:1006D000FBE7000001694A1C02610878704700B519
:1006E0008FB002910021059105490193794403914E
:1006F000114604906846FFF7D1FD0FB000BD000021
:10070000E5FFFFFF0A681070521C0A60704710B5C1
:100710004369002B02D0C046C04601E0FFF75EFDF2
:10072000012010BD1278014624310A7000224A705F
:100730000122ECE711680022D243E8E70146800875
:10074000081A02091018020A1018020C1018C00822
:10075000820012185200891A01E0401C0A390A2945
:10076000FBD27047754600F025F8AE460500694695
:100770005346C008C000854618B020B5FFF70AFDF3
:1007800060BCB64600260027C0C5C0C5C0C5C0C5F0
:10079000C0C5C0C5C0C5C0C5403D490849008D465B
:1007A000704710B50446C046C0462046FFF7E4FC3B
:1007B00010BD0000004870470000002001491820CB
:1007C000ABBEFEE7260002007047811E091F00BF76
:1007D000FCD27047B0B51122120283580124A34302
:1007E00083500B888C781C438B882343094C1C4016
:1007F0008358094D1D40631983508B79CC791C4374
:10080000097A21437E231940801842689A4351187F
:100810004160B0BD18670000E798FDFF10B50122E8
:10082000120383180C789C604978815010BD000039
:1008300010B5154881218160C1600161416181610C
:10084000C1618162C162016341638163C16301640B
:100850004164816441658165C16501664166816667
:10086000C1660A4A1346303B094C1C60146082235F
:100870000362084B43620160416010464038032127
:100880000160116010BDC04604804240D0120A4091
:10089000FCFCE70F8200040010B50A480121016446
:1008A000094A136804241C431460490542688A43BA
:1008B0004260064900220A600168032291430160F8
:1008C00010BDC04600010B4010ED00E008030B40D6
:1008D000084809494160FF210906084A13688B430B
:1008E00003218907591811600021816007210160E7
:1008F0007047C04610E000E0FF7C000020ED00E003
:1009000010B5154C15492046FFF788FF14492046BD
:10091000FFF760FF0320C103124802688A430260A8
:100920000169114A0A4011320261416917220A43E2
:1009300028218A4342614168012211404368934360
:10094000591841609102094B1C680C431C600168F6
:100950001143016010BDC046008010403B0D0000F7
:100960003E0D0000009110400000FFFF2890104055
:1009700080B500F009F8FFF75BFFFFF78DFFFFF789
:10098000BFFFFFF7A5FF80BD80B50648064941605F
:10099000064A51600649016011601020FFF715FFFB
:1009A00080BDC04600080A40030000B10088104026
:1009B0000100002692480168002902D00168491E02
:1009C000016083480168491C0160704780B5064892
:1009D0000068C0B20B2806D10448006804490870BA
:1009E000087800F087F980BD2090104024911040D5
:1009F00062020020F0B581B0C74EB78887421CD98B
:100A0000044600281DD031887D20850088B2401C16
:100A10002946FFF707FD781E012C15D002040AD0E5
:100A2000491CA94200D10021A41EBF1E002C0AD0DF
:100A30003804E9D100E00746B7800020708030809C
:100A4000B08001B0F0BD38463180F9E7B248808807
:100A50007047C0469CB0FFF78BFF0120C0035A4986
:100A600008605A4908600020019064200290644C9C
:100A700002E00120FFF7BEFF554A10680199401AB5
:100A8000C0087D2839D31068019003AE304651A1CB
:100A9000029D2A46FFF78CFB304600F0E9F830460D
:100AA0004FA12A46FFF784FB304600F0E1F8FF250E
:100AB000B581504805905048049050480390304606
:100AC00000F0D6F8322020602068002808D0206886
:100AD000002805D02068002802D020680028F3D123
:100AE00003A88581474905914349049143490391EE
:100AF00000F0BEF80298401C0290FFF7A7FF0728FD
:100B0000BAD312E0022000F0A7F8024603AD28464F
:100B100043A1FFF74DFB284600F0AAF80720FFF796
:100B200069FFFFF793FF0628A6D9FFF78FFF072875
:100B30009FD3002000F090F855289AD1042000F0AF
:100B40008BF8FF2895D1052000F086F8FF2890D17A
:100B5000062000F081F8FF288BD1012000F07CF8FE
:100B600001280BD10226304600F076F80546032016
:100B700000F072F8002813D030A312E0012000F03A
:100B80006BF80228BED0012000F066F80328C5D11A
:100B9000022000F061F8024603AD28461AA1B8E72A
:100BA00025A303AF384626A12A46FFF701FB3846A6
:100BB00000F05EF8304600F04FF80028AED1032078
:100BC00000F04AF8AAE7C04680E200E000E100E059
:100BD000640000206E302E76616C3D2564000000BC
:100BE00074302E7478743D226861686168256422CF
:100BF000FFFFFF002C31FFFF6B206230636C6963E5
:100C0000600000202C30FFFF6D73672E7478743DF8
:100C10002268312E76616C206973202564220000E1
:100C20006D73672E7478743D2268302E76616C2067
:100C300069732025642200006F6666006F6E0000F5
:100C40006D73672E7478743D226C65642025642072
:100C5000697320257322000010B52F4C21880818D5
:100C60007D218900FFF7DEFB6018807910BDC0464A
:100C700002781F4902E08A61581C5A78002A16D06F
:100C800003460868C007F6D00868C007F3D00868B4
:100C9000C007F0D00868C007F3D1ECE70868C007C8
:100CA00008D00868C00705D00868C00702D00868E7
:100CB000C007F3D1FF2088610A68D20708D00A680C
:100CC000D20705D00A68D20702D00A68D207F3D14A
:100CD00088610A68D20708D00A68D20705D00A6876
:100CE000D20702D00A68D207F3D188617047C046A4
:100CF0000891104010B5084CA1888A087C2A0AD8AF
:100D0000491CA1806288A11888717D208100501C37
:100D1000FFF788FB618010BD6800002030380A288A
:100D200001D2012070470020704704000008000035
:100D30000000000000020001000010080000000098
:100D40001800000000300000580D000000000020D6
:080D5000680300002801000007
:04000005000000C136
:00000001FF
